:030A770001750006
:030023000208F0E0
:1008F000C0E0C0D075D000C000C007309906D2015A
:10090000C299802B309828859975E575B4030ED26D
:1009100000745C2576F876007576008010E57564C5
:1009200002600AAF760576745C2FF8A675C298D07F
:0809300007D000D0D0D0E03266
:0F0A2D00758920759850758DFDD28E75A8912210
:1009AD00D3EF9400EE94004015E4FDFC0DBD000165
:0E09BD000CED647E4C70F5EF1F70E51E80E2BD
:0109CB002209
:090A4B00C292D293D292C293220E
:090A5400C292C293D292D2932205
:0B0A0800120938120A13AF011209385E
:0A0A1300C292D293D2922093FD22EA
:070A6600C292D293D292224A
:02093800AD0709
:10093A00E4FCC29274807E00A804088006CEA2E776
:10094A0013CE13D8F8FFEDFBEF5B6003D38001C32E
:08095A009293D2920CBC08DA62
:010962002272
:10000600E4FFFEC292D29230930D7480A806088057
:0B00160002C313D8FC42070EBE08E82E
:0100210022BC
:1009CC00AE07AA03A905120A4B120A08AF021209B4
:0E09DC0038120A13120A547F0A7E000209AD77
:04096300AA07A90531
:10096700E4FF120A4BAF02120A08120A4BEA4401CB
:10097700FF120938120A13120006120A66120A54E5
:01098700224D
:100A1D003132336134353662373839632A302364E5
:090A5D00C2A3C2A2C2A1C2A022E0
:1007A900120A5DA2A582A482A682A740F6C2A0D29F
:1007B900A3D2A2D2A1A2A582A482A682A74005E4BF
:1007C900F5088043C2A1D2A3D2A2D2A0A2A582A435
:1007D90082A682A74005750801802CC2A2D2A3D2A5
:1007E900A1D2A0A2A582A482A682A740057508026B
:1007F9008015C2A3D2A2D2A1D2A0A2A582A482A608
:1008090082A7400375080320A405E4F50980132095
:10081900A505750901800B20A605750902800375D8
:100829000903A2A582A482A682A750F6AF08EF33D6
:1008390095E0FEEF7802C333CE33CED8F9241DF507
:1008490082740A3EF583AF09EF3395E0FEE5822F06
:0A085900F582E5833EF583E493FF8A
:010863002272
:0F0A3C008F80C2B5D2B6C2B67F027E000209AD6E
:050A6D00C2B4020A3CC6
:050A7200D2B4020A3CB1
:1009EA007F02120A6D7F38120A6D7F06120A6D7F26
:0E09FA000C120A6D7F01120A6D7F80020A6DD9
:100988008B598A5A895BAB59AA5AA95B12011C6018
:1009980013055BE55B7002055A14F912011CFF127E
:0509A8000A7280E2224A
:1006A000456469742070617373776F72643A007087
:1006B000617373776F726420747970696E67203A22
:1006C0000070617373776F72642075706461746514
:1006D00064203A0077616974696E6720666F7220E2
:1006E000636172640057616974696E6720666F7236
:1006F00020636172640063617264207363616E6E73
:10070000656400696E76616C69642063617264007F
:100710007265747279207363616E6E696E670063CF
:1007200061726420666F756E642E2E00656E74654E
:10073000722070617373776F7264006E6F74686992
:100740006E6720656E746572656400656E746572AF
:1007500020736F6D657468696E67006361726420F1
:10076000626C6F636B656400696E76616C696420AE
:1007700070617373776F726400656E746572206167
:100780006761696E2E2E00446F6F72206F70656E08
:10079000656400636C6F73696E6720646F6F7200CD
:0907A000313235333030363600B9
:0300030002058370
:10058300C0E0C0F0C083C082C0D075D000C000C03E
:0D05930001C002C003C004C005C006C007BF
:1005A0007E007F147D007B007A0079211202DA7FC1
:1005B00001120A6D7F80120A6D7BFF7A0679A01204
:1005C00009887FE87E031209AD7F01120A6D7F80E2
:1005D000120A6D7BFF7A0679AF1209887FC0120A72
:1005E0006D7535001207A974212535F8A607742109
:1005F0002535F8E6FBB42313E535600FFD7FA01227
:1006000009CC74212535F87600804D74212535F804
:10061000E6B46317E53560137F10120A6D7F201270
:100620000A727F10120A6D153580B974212535F8CC
:10063000E6FBAD357FA01209CC74212535F8E6FF25
:10064000120A727F967E001209AD7F10120A6D7F2A
:100650002A120A720535808C7F01120A6D7F801282
:100660000A6D7BFF7A0679C11209887FE87E031242
:1006700009AD7F01120A6D7F80120A6D7BFF7A0639
:0506800079D412098885
:10068500D007D006D005D004D003D002D001D000C9
:0B069500D0D0D082D083D0F0D0E03273
:1003060078397C007D007BFF7A0779A07E007F0923
:100316001200F6E4F5577FE87E031209AD120A2DA6
:100326001209EA7558037F01120A6D7F80120A6D61
:100336007BFF7A0679E5120988C200E4F576FE7F2E
:1003460019FDFB7A00795C1202DA3000FD7F01129A
:100356000A6D7F80120A6D7BFF7A0679F61209888C
:100366007FE87E031209AD7F01120A6D7F80120AB3
:100376006D785C7C007D007B007A0079391202BDC5
:10038600EF60207BFF7A0779031209887FC0120A83
:100396006D7BFF7A0779101209887FD07E071209D4
:1003A600AD80837BFF7A07791F1209887FC0120A06
:1003B6006D7B007A00795C1209887FE87E0302046F
:1003C600487BFF7A07792C1209887FC0120A6D7E56
:1003D600007F147D007B007A0079431202DAE4F58F
:1003E600421207A974432542F8A60774432542F82A
:1003F600E6B4231BE5426017FD7FA0120963744330
:100406002542F8E66F70030204D105570204D17441
:10041600432542F8E664237039E54270357F1012B1
:100426000A6D7F80120A6D7BFF7A07793B12098875
:100436007FC0120A6D7BFF7A07794B1209887FD03D
:100446007E071209AD7F01120A6D7F80120A6D02C6
:1004560003C774432542F8E66463702DE5426029BC
:100466007F10120A6D7F20120A727F10120A6D1514
:1004760042AD427FA012096374432542F8E66F70CD
:10048600030203E715570203E774432542F8E6B46F
:100496006307E54270030203E774432542F8E6FF6B
:1004A600120A727F647E001209AD7F10120A6D7FF8
:1004B6002A120A72AD427FA012096374432542F8DC
:1004C600E66F6002055705420203E7D3E5576480ED
:1004D60094804058D5581D7F01120A6D7F80120AFC
:1004E6006D7BFF7A07795B1209887FE87E03120924
:1004F600AD0203297F01120A6D7F80120A6D7BFF10
:100506007A0779681209887FC0120A6D7BFF7A071D
:1005160079791209887FE87E031209AD7F01120AF4
:100526006D7F80120A6DE4F5570203C77F01120A38
:100536006D7F80120A6D7BFF7A077987120988D250
:1005460090C2917F327E001209ADC2907FB87E0BB9
:100556001209AD7F01120A6D7F80120A6D7BFF7A48
:10056600077993120988C290D2917F327E001209D0
:0D057600ADC2917FB87E0B1209AD020329C2
:030000000208648F
:0C086400787FE4F6D8FD7581760208ABC1
:10002600E709F608DFFA8046E709F208DFFA803EBC
:1000360088828C83E709F0A3DFFA8032E309F608A9
:10004600DFFA8078E309F208DFFA807088828C8311
:10005600E309F0A3DFFA806489828A83E0A3F608C5
:10006600DFFA805889828A83E0A3F208DFFA804C9F
:1000760080D280FA80C680D4806980F28033801076
:1000860080A680EA809A80A880DA80E280CA8033DF
:1000960089828A83ECFAE493A3C8C582C8CCC58357
:1000A600CCF0A3C8C582C8CCC583CCDFE9DEE78027
:1000B6000D89828A83E493A3F608DFF9ECFAA9F0A6
:1000C600EDFB2289828A83ECFAE0A3C8C582C8CCFC
:1000D600C583CCF0A3C8C582C8CCC583CCDFEADE15
:1000E600E880DB89828A83E493A3F208DFF980CC77
:1000F60088F0EF60010E4E60C388F0ED2402B40470
:100106000050B9F582EB2402B4040050AF23234516
:06011600822390007673C5
:10011C00BB010689828A83E0225002E722BBFE02E1
:09012C00E32289828A83E4932214
:10013500E3F5F009E208B5F06D606B80F3E3F5F0E7
:1001450009E608B5F060605E80F387F009E608B55A
:10015500F054605280F487F009E208B5F048604633
:1001650080F488828C8387F009E0A3B5F038603687
:1001750080F488828C8387F009E493A3B5F0276027
:100185002580F388828C83E3F5F009E0A3B5F016AA
:10019500601480F388828C83E3F5F009E493A3B5BA
:1001A500F004600280F2020260808580E7808E8024
:1001B500D2803C8015806C807E809B80B5808B8052
:1001C500A1804F8070803A02027689828A83ECFA98
:1001D500E493F5F0A3C8C582C8CCC583CCE493A34A
:1001E500C8C582C8CCC583CCB5F070606E80E18986
:1001F500828A83E493F5F0A3E208B5F05E605C8043
:10020500F289828A83E0F5F0A3E608B5F04D604BEC
:1002150080F389828A83E0F5F0A3E208B5F03C60BB
:100225003A80F389828A83E493F5F0A3E608B5F072
:100235002A602880F2805D89828A83ECFAE493F54E
:10024500F0A3C8C582C8CCC583CCE0A3C8C582C805
:10025500CCC583CCB5F004600280E27F00F845F0A0
:10026500600EE863F0806480D395F01F40027F0143
:100275002289828A83ECFAE0F5F0A3C8C582C8CC4E
:10028500C583CCE0A3C8C582C8CCC583CCB5F0CBAB
:1002950060C980E389828A83ECFAE0F5F0A3C8C5DA
:1002A50082C8CCC583CCE493A3C8C582C8CCC5831A
:1002B500CCB5F0A760A580E288F0ED2402B4040077
:1002C5005099F582EB2402B40400508F2323458214
:0502D500239001AE734F
:1002DA00EF4E6012EF60010EEDBB010B89828A833B
:1002EA00F0A3DFFCDEFA2289F05007F709DFFCA948
:0C02FA00F022BBFEFCF309DFFCA9F0229F
:10087000020306E493A3F8E493A34003F68001F295
:1008800008DFF48029E493A3F85407240CC8C33389
:10089000C4540F4420C8834004F456800146F6DF58
:1008A000E4800B0102040810204080900A77E47E67
:1008B000019360BCA3FF543F30E509541FFEE4934D
:1008C000A360010ECF54C025E060A840B8E493A314
:1008D000FAE493A3F8E493A3C8C582C8CAC583CA3F
:1008E000F0A3C8C582C8CAC583CADFE9DEE780BEF7
:010A7A00007B
:00000001FF
